:100000000C940A010C9432010C9432010C943201CC
:100010000C9432010C9432010C9432010C94320194
:100020000C9432010C94CC140C948A1E0C94271D51
:100030000C9432010C9432010C9432010C94320174
:100040000C9432010C94C0080C9432010C943201CF
:100050000C9432010C9432010C9432010C9446152C
:100060000C9432010C94221A0C94541A0C94320100
:100070000C9432010C9432010C9432010C94320134
:100080000C9432010C9432010C9432010C94320124
:100090000C94F60C0C9432010C9432010C94320145
:1000A0000C9432010C9432010C943201F9071108BE
:1000B00034071108AA0711080F07BF061108110815
:1000C000110811081108CC051108A2061108FA063A
:1000D000B416B916BE16C816D2161C171C171C1754
:1000E000DC16E616F016FA1607171C170F173D1741
:1000F00040172F1733173917611761176117441706
:1001000048174C175217561761175C170001040562
:100110000607080A0B0C0D090000000200090F0079
:1001200000030401000C000004080201104080409C
:10013000102040804080080402010102102040800D
:10014000108010204040040404040403040502024B
:100150000202040302020202060606060606040460
:1001600002020204000000002300260029002C00E7
:100170002F0000000000250028002B002E00310079
:1001800000000000240027002A002D003000080B8A
:100190000002020201000904000001020200000541
:1001A000240010010524010101042402060524068F
:1001B00000010705810310004009040100020A0044
:1001C000000007050202400000070583024000000E
:1001D00012010002EF0201408D0E01AB000101028D
:1001E00003014D6564696154656B204C6162730065
:1001F0004C696E6B497420536D61727420373638C8
:10020000382044756F00040309043F05FE0B1210EB
:10021000E718841A11241FBECFEFDAE0DEBFCDBF8E
:1002200012E0A0E0B1E0EEEEF3E402C005900D9222
:10023000A033B107D9F726E0A0E3B2E001C01D92D8
:10024000AA32B207E1F711E0CAE0D1E004C0219779
:10025000FE010E947420C530D107C9F70E946A1FB1
:100260000C94F5210C940000843028F4E82FF0E081
:10027000E750FD4F608308951F93CF93DF93843041
:1002800008F06DC0282F220F220F220F285F2F3178
:1002900008F02EE1C82FCC0FCC0FCC0F3C2F10E074
:1002A00041E03217D0F4832F90E0FC01E952FD4F7A
:1002B0005081523078F4142B880F991FFC01E956B5
:1002C000FD4FA1E0B0E0842F862311F4A0E0B0E060
:1002D000B183A083440F3F5FE4CFD62F10FF04C04B
:1002E00061708C2F0E949E1711FF06C06D2F6270E7
:1002F00081E08C0F0E949E1712FF06C06D2F647064
:1003000082E08C0F0E949E1713FF06C06D2F68704D
:1003100083E08C0F0E949E1714FF06C06D2F607142
:1003200084E08C0F0E949E1715FF06C06D2F60722F
:1003300085E08C0F0E949E1716FF06C06D2F60741B
:1003400086E08C0F0E949E1717FF09C06D2F607802
:1003500087E08C0FDF91CF911F910C949E17DF9156
:10036000CF911F9108958C3000F54091FD0250917E
:10037000FE0221E030E0672B61F4B90102C0660F94
:10038000771F8A95E2F7CB0180959095842395237A
:1003900008C002C0220F331F8A95E2F7CA01822BE0
:1003A000932B9093FE028093FD020895EF92FF92AB
:1003B0000F931F93CF93DF938E3190F58B01C82F4E
:1003C000D0E0FE01E952FD4F90819330A1F09430CE
:1003D00039F57E01EE0CFF1C8C3038F4C7018C0F10
:1003E0009D1F805D9D4F0E94660AF701E956FD4FF3
:1003F0001183008315C0833051F09BEF980F92302A
:1004000030F097EF980F933010F08D3019F4B80159
:100410000E948D16CC0FDD1FC956DD4F198308834E
:10042000DF91CF911F910F91FF90EF9008951F934F
:10043000CF93DF93C82FD0E0FE01ED52FD4F9081A6
:10044000162F1923CB50DD4F411103C0988191170E
:1004500041F0682F412F50E087EF93E00E94C10FD9
:100460001883DF91CF911F910895CF93DF938091EF
:10047000F902882309F448C0D091D302D0FF1DC1EE
:1004800080E00E94CE17892B09F417C1C1E0D1FF8B
:1004900006C081E00E94CE17892B09F010C1D2FF5F
:1004A00006C082E00E94CE17892B09F00AC1D3FF53
:1004B00006C083E00E94CE17892B09F004C1D4FF47
:1004C00006C084E00E94CE17892B09F0FEC0D5FF3C
:1004D00006C085E00E94CE17892B09F0F8C0D6FF30
:1004E00006C086E00E94CE17892B09F0F2C0D7FF24
:1004F00006C087E00E94CE17892B09F0ECC040E0CF
:100500006C2F80E00E9417028091FA02882309F480
:1005100048C0D091D402D0FFE0C088E00E94CE173E
:10052000892B09F4DAC0C1E0D1FF06C089E00E943E
:10053000CE17892B09F0D3C0D2FF06C08AE00E94F3
:10054000CE17892B09F0CDC0D3FF06C08BE00E94E7
:10055000CE17892B09F0C7C0D4FF06C08CE00E94DB
:10056000CE17892B09F0C1C0D5FF06C08DE00E94CF
:10057000CE17892B09F0BBC0D6FF06C08EE00E94C3
:10058000CE17892B09F0B5C0D7FF06C08FE00E94B7
:10059000CE17892B09F0AFC040E06C2F81E00E949C
:1005A00017028091FB02882309F448C0D091D5023C
:1005B000D0FFA3C080E10E94CE17892B09F49DC013
:1005C000C1E0D1FF06C081E10E94CE17892B09F05E
:1005D00096C0D2FF06C082E10E94CE17892B09F097
:1005E00090C0D3FF06C083E10E94CE17892B09F08B
:1005F0008AC0D4FF06C084E10E94CE17892B09F07F
:1006000084C0D5FF06C085E10E94CE17892B09F072
:100610007EC0D6FF06C086E10E94CE17892B09F066
:1006200078C0D7FF06C087E10E94CE17892B09F05A
:1006300072C040E06C2F82E00E9417028091FC02A1
:10064000882309F476C0D091D602D0FF66C088E135
:100650000E94CE17892B09F460C0C1E0D1FF06C00B
:1006600089E10E94CE17892B09F059C0D2FF06C03C
:100670008AE10E94CE17892B09F053C0D3FF06C030
:100680008BE10E94CE17892B09F04DC0D4FF06C024
:100690008CE10E94CE17892B09F047C0D5FF06C018
:1006A0008DE10E94CE17892B09F041C040E06C2FEC
:1006B00083E0DF91CF910C941702C0E0E8CEC260D6
:1006C000EECEC460F4CEC860FACEC06100CFC06286
:1006D00006CFC0640CCFC06812CFC0E025CFC26087
:1006E0002BCFC46031CFC86037CFC0613DCFC0626F
:1006F00043CFC06449CFC0684FCFC0E062CFC26073
:1007000068CFC4606ECFC86074CFC0617ACFC0625A
:1007100080CFC06486CFC0688CCFC0E09FCFC2605E
:10072000A5CFC460ABCFC860B1CFC061B7CFC06246
:10073000BDCFDF91CF910895109256028FEF809335
:10074000060108958F929F92AF92BF92CF92DF924F
:10075000EF92FF920F931F93CF93DF93C82F5B010C
:10076000C82ED12C960129523D4F7901F901808183
:100770008601000F111F863051F4809156028823A4
:1007800031F06630710509F4DEC00E949C03CC3064
:1007900080F424E0A216B10461F0C8018C0D9D1D07
:1007A000FC01E05DFD4F4F01CF010E94C20A8111A3
:1007B000C6C0DEEEDC0FDC3060F461E070E0F2E039
:1007C000AF16B10411F060E070E08D2F0E94B3010C
:1007D00002C0CE3100F5EC2FE695E695E6954C2F5C
:1007E0004770F0E0ED52FD4FA114B10451F481E0E7
:1007F00090E001C0880F4A95EAF79081892B8083A9
:100800000AC021E030E001C0220F4A95EAF72095A6
:10081000808128232083F801E956FD4F1182108240
:1008200022E0A216B104A1F03CF4A114B104E9F055
:10083000AA94AB2841F171C094E0A916B10409F45F
:1008400047C074F1F6E0AF16B10409F45FC065C0AB
:10085000DC3008F07CC060E08C2F0E94621760E002
:100860008C2F0E949E1782E055C0CE3108F06FC0D9
:1008700060E08C2F0E94621760E08C2F0E949E1710
:10088000F701108264C0CE3108F061C060E08C2FA7
:100890000E949E1761E08C2F0E94621781E03AC08F
:1008A000C33059F08BEF8C0F823038F087EF8C0F0C
:1008B000833018F0CD3009F04AC061E08C2F0E94DF
:1008C000621760E070E08C2F0E948D1683E022C0DA
:1008D000CC30E8F584E0F70180830C0D1D1D005D30
:1008E0001D4FC8010E94C20A811131C0B601C80162
:1008F000DF91CF911F910F91FF90EF90DF90CF90FC
:10090000BF90AF909F908F900C941F0AC250C2303E
:10091000F0F486E0F70180831AC06DE171E087EFA3
:1009200093E0DF91CF911F910F91FF90EF90DF90B7
:10093000CF90BF90AF909F908F900C94CA0FC4013E
:100940000E94250A36CFCC3008F427CF32CFDF9172
:10095000CF911F910F91FF90EF90DF90CF90BF90BC
:10096000AF909F908F900895CF93C0E08EEF8C0F43
:10097000823028F466E070E08C2F0E94A203CF5FE3
:10098000CE31A1F781E08093560285E293E0CF91CA
:100990000C946D0BCF93DF938091560281110E94CE
:1009A0009C03C3EDD2E0A5EFB2E0E9EFF2E084E012
:1009B0008E0F119219921D928E13FBCFC0E08EEE16
:1009C0008C0F8C3018F462E070E002C061E070E0DF
:1009D0008C2F0E94A203CF5FCE3189F71092FE02C6
:1009E0001092FD02DF91CF91089525E042E06EE282
:1009F00071E087EF93E00E94300F46ED51E060EE2A
:100A000087EF93E00E94DA0F4CE351E060E987EF53
:100A100093E00E94DA0F43EB51E060EC87EF93E044
:100A20000E94DA0F44E351E060ED87EF93E00E940B
:100A3000DA0F42EA53E064EF87EF93E00E94DA0FA7
:100A400045EB55E060EF87EF93E00E940D104AEC14
:100A500054E06FEF87EF93E00E94061026E040E03D
:100A600051EE60E070E083E795E00E94C21963E711
:100A700075E087EF93E00E941C0F0C94CA04CF939B
:100A8000DF93C0E3D2E0CE010E948109239682E089
:100A9000C435D807C1F7DF91CF910895EF92FF9247
:100AA0000F931F93CF93DF93D82F8B01C42F6F3FEA
:100AB0007F4FB9F06D2F85E293E00E94770B602F96
:100AC00085E293E00E942E0B85E293E00E94FB0BEF
:100AD0008091540290915502009729F00E94FD15D3
:100AE00002C000E010E04C2F6D2F85E293E00E94E1
:100AF000F80BEC2EF12C85E293E00E94D20AE81666
:100B0000F906A1F4D09357020093580200E010E0D8
:100B10000E151F05DCF485E293E00E94DA0AF80165
:100B2000E95AFD4F82830F5F1F4FF2CF85E293E0BA
:100B30000E94D20A8E159F051CF46FE671E002C078
:100B400067E971E087EF93E00E94CA0F42E04C0F23
:100B500027E532E067E787EF93E0DF91CF911F91C0
:100B60000F91FF90EF900C94C50FBF92CF92DF9240
:100B7000EF92FF920F931F93CF93DF9390E0FC01CE
:100B8000E956F109E231F10508F04BC2EA01162FEE
:100B9000EA5AFF4F0C9474208981982F987185FF31
:100BA00003C06EEB71E05FC08881983099F148F422
:100BB000911137C2682F85E293E00E94770B02E023
:100BC00007C0903109F449C0983109F476C029C2B0
:100BD000011778F4FE01E00FF11D8181608120E8AA
:100BE000829F6019112485E293E00E942E0B0E5F14
:100BF000EFCF85E293E00E94FB0B86E490E0DF916B
:100C0000CF911F910F91FF90EF90DF90CF90BF9009
:100C10000C94FD152B819A81663069F43D814C81DD
:100C200050E8359F40191124E0E82E9F90191124B7
:100C3000692F70E007C0492FF0E82F9F4019112459
:100C40006FEF7FEFDF91CF911F910F91FF90EF90AA
:100C5000DF90CF90BF900C944E05E0910601E730F5
:100C60007CF06AEE71E087EF93E0DF91CF911F9106
:100C70000F91FF90EF90DF90CF90BF900C94CA0F30
:100C8000EF5FE09306010E2E000CFF0B9F01220F79
:100C9000331FE20FF31FE958FD4F80839B818A8148
:100CA00020E8929F8019112481839D818C8130E8F6
:100CB000939F801911248283B4C1309106011316C9
:100CC00024F08FEF80930601ACC120E0C32F032EE8
:100CD000000CDD0B422F50E0C417D5076CF0FA0171
:100CE000EE0FFF1F4E0F5F1FFA01E958FD4F808383
:100CF00081111FC02F5FEECF20E01BC02830C0F451
:100D0000DC011196AD01440F551FA40FB51FA95862
:100D1000BD4F4C91FC01EE0FFF1F8E0F9F1FFC017A
:100D2000E958FD4F40838C91818312968C91828388
:100D30002F5F822F90E0C817D90704F73150309306
:100D400006016FC12881898150E8859FC001112467
:100D5000820F911D009721F09093550280935402C9
:100D60008091560281115DC1DF91CF911F910F914A
:100D7000FF90EF90DF90CF90BF900C94B40465305B
:100D800008F44FC1D880C9801A81BB800C818BE0E8
:100D90008D1508F446C1ED2CF12CE701CC0FDD1FB9
:100DA000CE0DDF1DC05DDD4FCE010E94C20A88233B
:100DB00019F0CE010E94250A90E8099F90011124A4
:100DC0002B0D311DE0E81E9FA00111244C0D511D7B
:100DD000B701CE010E949D0964E070E08D2DDF9186
:100DE000CF911F910F91FF90EF90DF90CF90BF9028
:100DF0000C94A203623008F414C128818981F0E8C0
:100E00008F9FC0011124820F911D8A30910514F427
:100E10008AE090E0909308018093070102C162305C
:100E200008F4FFC0698170E0123091F08A8120E8F7
:100E3000829FC0011124682B792B133049F08B81DC
:100E400090E090E4899F902D88271124682B792BBE
:100E50008881DF91CF911F910F91FF90EF90DF90EC
:100E6000CF90BF900C94D60160EF87EF93E00E9483
:100E7000CE0F6CE687EF93E00E94CE0FC0E060E0FB
:100E800087EF93E00E94CE0F61E087EF93E00E942E
:100E9000CE0F61E087EF93E00E94CE0F61E087EF15
:100EA00093E00E94CE0F8EEE8C0F8C3058F462E0EF
:100EB00087EF93E00E94CE0F6AE087EF93E00E94F5
:100EC000CE0F0DC0C33059F463E087EF93E00E946A
:100ED000CE0F68E087EF93E00E94CE0F0AC08BEF41
:100EE0008C0F823088F387EF8C0F833068F3CD301E
:100EF00059F3CC3050F464E087EF93E00E94CE0FBA
:100F00006EE087EF93E00E94CE0F8EEF8C0F823061
:100F100050F466E087EF93E00E94CE0F61E087EF28
:100F200093E00E94CE0F6FE787EF93E00E94CE0F11
:100F3000CF5FCE3109F0A3CF67EF87EF93E0DF916A
:100F4000CF911F910F91FF90EF90DF90CF90BF90C6
:100F50000C94CE0F662309F464C0C88160EF87EF5C
:100F600093E00E94CE0F6EE687EF93E00E94CE0FD3
:100F70006C2F87EF93E00E94CE0FCE31E8F6D0E0E1
:100F8000FE01E952FD4F608187EF93E00E94CE0F92
:100F9000CC0FDD1F8E0109561D4FF80160816F7760
:100FA00087EF93E00E94CE0FF80160817181CB0141
:100FB0008078892B49F0660F672F661F770B6F7754
:100FC00087EF93E00E94CE0FC956DD4F688179818B
:100FD000CB018827907C892B09F4AECF770F660B65
:100FE000770F762F661F6F7787EF93E00E94CE0F03
:100FF000A3CF60EF87EF93E00E94CE0F6AE687EF02
:1010000093E00E94CE0FCEEECC3010F46C2F01C0D6
:101010006FE787EF93E00E94CE0FCF5FCC30A1F750
:101020008BCFDF91CF911F910F91FF90EF90DF90C9
:10103000CF90BF9008958F929F92AF92BF92CF9220
:10104000DF92EF92FF920F931F93CF93DF9300D025
:10105000CDB7DEB70E94350287EF93E00E94930F71
:10106000892B29F087EF93E00E949F0FF5CF0E9414
:1010700090156093930270939402809395029093DD
:101080009602C0908F02D0909002E0909102F09072
:10109000920240910701509108014A01550FAA0898
:1010A000BB088B019C010C191D092E093F098016F4
:1010B0009106A206B30608F054C0D501C4018C0DF8
:1010C0009D1DAE1DBF1D80938F0290939002A09333
:1010D0009102B093920207ED12E020E06EEE620FF3
:1010E0006C30E0F4F80180818230C1F48091FD021F
:1010F0009091FE02062E02C0959587950A94E2F71C
:1011000080FF0CC0862F2A8369830E945C16AC0185
:10111000698187EF93E00E94BD0F2A812F5F0F5FE7
:101120001F4F2E31D9F68091060187FD1AC010E0BD
:10113000E12FF0E080910601082E000C990B8E172C
:101140009F077CF0CF01880F991FE80FF91FE9581E
:10115000FD4F618170E0428180810E944E051F5FDA
:10116000E7CF0F900F90DF91CF911F910F91FF90DC
:10117000EF90DF90CF90BF90AF909F908F900895A9
:101180001F920F920FB60F9211242F933F934F93FC
:101190005F936F937F938F939F93AF93BF93EF93DF
:1011A000FF938091000387FF05C010928500109285
:1011B00084001BC020910003022E000C330B809191
:1011C000FF0290E02817390784F480910003082E6D
:1011D000000C990BFC01EE0FFF1F8E0F9F1FFC01EF
:1011E000EF5FFC4F808186FD15C0809100038F5F0B
:1011F0008093000320910003022E000C330B80919A
:10120000FF0290E028173907C4F4809100038C3066
:1012100064F113C080910003082E000C990BFC01AF
:10122000EE0FFF1F8E0F9F1FFC01EF5FFC4F8081B1
:1012300060E08F730E949E17D8CF809184009091B8
:101240008500049680329E4418F480E29EE405C036
:1012500080918400909185000496909389008093FA
:1012600088008FEF809300033BC020918400309171
:10127000850080910003082E000C990BFC01EE0FF5
:10128000FF1F8E0F9F1FFC01EF5FFC4F818192813A
:10129000820F931F909389008093880080910003B0
:1012A000082E000C990BFC01EE0FFF1F8E0F9F1FE5
:1012B000FC01EF5FFC4F808186FF12C0809100032C
:1012C000082E000C990BFC01EE0FFF1F8E0F9F1FC5
:1012D000FC01EF5FFC4F808161E08F730E949E17DD
:1012E000FF91EF91BF91AF919F918F917F916F91FE
:1012F0005F914F913F912F910F900FBE0F901F90D4
:101300001895FC019091FF029C30A0F481E0890FB8
:101310008093FF029083892F90E0FC01EE0FFF1F66
:101320008E0F9F1FFC01EF5FFC4F8CED95E09283C9
:10133000818308958FEF80830895DF92EF92FF926B
:101340000F931F93CF93DF93EC01D62E7A0189017F
:1013500088818C3008F06AC061E08D2D0E94621790
:101360008881E82FF0E09F01220F331FE20FF31F67
:10137000EF5FFC4F9D2D9F732081207CD22ED92AB8
:10138000D08260E272E0AB014E195F0957FF02C0E4
:101390004D5F5F4F5595479555954795498340E675
:1013A00059E09A01201B310B37FF02C02D5F3F4FE0
:1013B00035952795359527952A836CE00E9427203F
:1013C0009CE0899FB001112440E050E09A01260F73
:1013D000371FF901EE0FFF1F2E0F3F1FF901EF5FBF
:1013E000FC4F908196FD16C04F5F5F4F4C3051050A
:1013F00069F781110FC01092800082E08093810014
:101400001092850010928400B19A80916F008260E2
:1014100080936F00E881F0E0CF01880F991FE80FFB
:10142000F91FEF5FFC4F8081806480838881DF91AA
:10143000CF911F910F91FF90EF90DF90089520E6DC
:1014400039E040E252E00C949D09DC01EC91F0E0BF
:10145000CF01880F991FE80FF91FEF5FFC4F8081C4
:101460008F7B80830895FC0190819C3070F5818191
:1014700028E830E0281B310987FD3395220F331F00
:10148000220F331F621773077CF0828128E532E058
:10149000281B310987FD3395220F331F220F331F7D
:1014A000621773070CF49B014FB7F894892F90E0F3
:1014B00022503109FC01EE0FFF1F8E0F9F1FFC0110
:1014C000EF5FFC4F328321834FBF0895AF92BF92ED
:1014D000CF92DF92EF92FF920F931F93CF93DF9300
:1014E000EC01603282E078070CF03FC077FD06C067
:1014F000653B71052CF064EB70E002C060E070E0C9
:10150000898128E830E05901A81AB10887FDB39411
:10151000AA0CBB1CAA0CBB1C0B2C000CCC08DD08B5
:10152000072E000C880B990B2A8108E512E0021B9C
:10153000110927FD1395000F111F000F111F012E18
:10154000000C220B330B3F932F931F930F9314EB3D
:10155000E12EF12C00E010E020E030E0A9010E9433
:10156000281F0F900F900F900F90CE01DF91CF9119
:101570001F910F91FF90EF90DF90CF90BF90AF90B1
:101580000C94330AFC01808190E0FC01EE0FFF1FF8
:101590008E0F9F1FFC01EF5FFC4F808186FB882729
:1015A00080F908958091550390E020915603821BA5
:1015B000910908959091560380915503981750F41E
:1015C000E92FF0E0E95AFC4F208130E09F5F9093D3
:1015D000560302C02FEF3FEFC9010895E091560373
:1015E00080915503E81730F4F0E0E95AFC4F808110
:1015F00090E008958FEF9FEF08950895CF92DF92C6
:10160000EF92FF920F931F93CF93DF937C01262FCE
:10161000972F8A0180913103882391F0C62FD72F0D
:101620006E01C40ED51ECC15DD0571F06991D70190
:10163000ED91FC910190F081E02DC7010995F3CF68
:10164000642F822F0E94BE0CC801DF91CF911F91A1
:101650000F91FF90EF90DF90CF900895CF93DF939D
:101660001F92CDB7DEB76983209131032223D1F0D9
:1016700020913203203240F021E030E0FC0133833E
:10168000228380E090E015C080913303E82FF0E0E2
:10169000EC5CFC4F998190838F5F80933303809340
:1016A000320305C061E0CE0101960E94BE0C81E0CC
:1016B00090E00F90DF91CF910895FC011382128288
:1016C00088EE93E0A0E0B0E084839583A683B7839F
:1016D0008FEF91E0918380830895109256031092CA
:1016E000550310923303109232030C94020C81E0E4
:1016F00080933103609354031092330310923203AA
:1017000008950F93062F21E04091320364E373E0C4
:10171000809154030E94680C10923303109232039C
:10172000109231030F9108954F925F926F927F92C2
:10173000AF92BF92CF92EF92FF920F931F93CF93EE
:10174000DF935C01F62ED42F28013901EE2021F120
:101750000E94770BCE2DC43008F0C3E0C150C0F01A
:10176000D501ED91FC91B8E0CB9FC0011124A301FC
:10177000920104C056954795379527958A95D2F7DB
:10178000CA01B9010190F081E02DC5010995E6CFAC
:1017900060E0C5010E94810B4D2FD13208F040E27C
:1017A0002C2D67E573E08F2D0E94200C10925603BC
:1017B00080935503DF91CF911F910F91FF90EF9090
:1017C000CF90BF90AF907F906F905F904F900895B3
:1017D000CF92EF920F931F93C22EE12C00E010E006
:1017E00098010E94940B1F910F91EF90CF90089554
:1017F00021E00C94E80B61E00C94810B85E293E00E
:101800000C945D0B1092E40381E08093E20310924C
:10181000E10361E082E00E949E1761E083E00E94A4
:101820009E17E9EBF0E080818E7F808380818D7F41
:10183000808380E28093B80085E48093BC000895A3
:10184000413208F043C09091E4039111FCCF91E044
:101850009093E4032093E2032FEF209377031092F9
:10186000BC03240F2093BB039093E3039091E30305
:10187000880F892B8093E3038091E103813061F429
:101880001092E1038091E3038093BB008091BC0040
:1018900083FDF8CF85EC01C085EE8093BC0080917C
:1018A000E4038130E1F38091BC03841710F440918C
:1018B000BC032DEB33E0FB01D9018A2F821B841777
:1018C00018F48D918193F9CF842F089580E00895C5
:1018D0000F93413208F04AC09091E4039111FCCF7C
:1018E00032E03093E4030093E2033FEF3093770359
:1018F0001092BC034093BB03FB016DEB73E0DB0173
:101900003A2F361B341718F431913D93F9CF1092CA
:10191000E3033091E303880F832B8093E3038091EB
:10192000E103813061F41092E1038091E30380933D
:10193000BB008091BC0083FDF8CF85EC01C085EE33
:101940008093BC00222321F08091E4038230D1F304
:10195000809177038F3F79F080917703803241F057
:1019600080917703803331F094E005C091E003C0AB
:1019700092E001C093E0892F0F910895409199035F
:10198000262F30E0240F311D21323105DCF4209167
:10199000E4032430C9F4FC0180E090E0861758F499
:1019A000309199032191DC01A556BC4FA30FB11DC5
:1019B0002C930196F3CF80919903680F609399035C
:1019C00080E0089581E0089582E0089585ED809398
:1019D000BC008091BC0084FDFCCF1092E40308950C
:1019E00085EC8093BC001092E40308951F920F923F
:1019F0000FB60F9211242F933F934F935F936F93E2
:101A00007F938F939F93AF93BF93EF93FF938091B7
:101A1000B900887F803609F49EC078F5883209F4D1
:101A20005DC090F4803109F456C038F4882309F47D
:101A3000F5C0883009F44FC0F5C0883109F44EC0B4
:101A4000803209F45FC0EEC0803409F46AC058F4F3
:101A5000803309F457C0883309F0E4C080937703DA
:101A60000E94F00CDFC0803509F44FC0883509F4BE
:101A70005DC0883409F0D6C0D3C0883909F4C4C029
:101A8000A8F4883709F467C038F4883609F463C0CD
:101A9000803709F460C0C6C0883809F4B5C0803901
:101AA00009F45FC0803809F0BDC05BC0803B09F419
:101AB00083C038F4803A09F466C0883A09F47CC0DF
:101AC000B1C0803C09F4A4C0883C09F4A1C0883BA3
:101AD00009F487C0A7C08091E30310C09091BC03B4
:101AE0008091BB03981770F5E091BC0381E08E0FE5
:101AF0008093BC03F0E0E354FC4F80818093BB00F3
:101B000085EC83C0809377038BC0E091BC0381E0B8
:101B10008E0F8093BC038091BB00F0E0E354FC4F38
:101B200080839091BC038091BB036BC0E091BC03A8
:101B300081E08E0F8093BC038091BB00F0E0E35402
:101B4000FC4F80838091E20381116AC081E0809321
:101B5000E10384EA5EC083E08093E403109278039B
:101B6000CFCF80917803803208F04EC0E0917803A7
:101B700081E08E0F809378038091BB00F0E0E758FE
:101B8000FC4F8083BDCF0E94F00C8091780380329F
:101B900030F4E0917803F0E0E758FC4F1082609158
:101BA000780370E0E091DD03F091DE0389E793E0D4
:101BB00009951092780336C084E08093E403109274
:101BC0009A0310929903E091DF03F091E0030995E5
:101BD00080919903811105C081E08093990310924F
:101BE0009B03E0919A0381E08E0F80939A03F0E0CB
:101BF000E556FC4F80818093BB0090919A038091C1
:101C00009903981708F47CCF85E88093BC000AC03C
:101C100085EC8093BC001092E40304C0109277031B
:101C20000E94E60CFF91EF91BF91AF919F918F9130
:101C30007F916F915F914F913F912F910F900FBEC8
:101C40000F901F901895862FE091F503F091F60301
:101C5000309711F0BA0109940895862FE091F303AB
:101C6000F091F403309711F0BA0109940895862F8A
:101C7000E091F103F091F203309711F0BA01099469
:101C80000895862FE091EF03F091F003309711F063
:101C9000BA0109940895862FE091ED03F091EE03C7
:101CA000309711F0BA0109940895862FE091EB0363
:101CB000F091EC03309711F0BA0109940895CB012B
:101CC000E091E903F091EA03309709F0099408954F
:101CD000862F642FE091E703F091E803309711F02D
:101CE000A90109940895E091E503F091E603309786
:101CF00009F0099408950F931F93CF93DF938C01FC
:101D0000805C9F4F0E940911E801CE5BDF4F40E4E9
:101D100050E0B801CE010E946812F801E058FF4F70
:101D20001082319611821082E45AFF4F108220E017
:101D300030E043E25EE060EECE010E94AA1220E0B5
:101D400030E04DE25EE060E9CE010E94AA1220E0A0
:101D500030E04BE45EE060ECCE010E94AA1220E08D
:101D600030E045E55EE060EDCE010E94AA1220E081
:101D700030E047E35EE064EFCE010E94AA1220E06B
:101D800030E041E45EE065EFCE010E94AA1220E05F
:101D900030E04FE55EE061E7CE010E94EF1220E007
:101DA00030E048E65EE060EFCE010E94F712980155
:101DB00047E15FE069E7CE010E94D712980147EF43
:101DC0005EE069EFCE010E94DF1220E030E043E7E1
:101DD0005EE06FEFCE01DF91CF911F910F910C94D8
:101DE000DF1245E062E0805C9F4F0C94D9110097B0
:101DF00011F00C94F10E08950F931F93FC01E0581D
:101E0000FF4F2081222381F031960190F081E02D57
:101E10008F010E5F1F4F30E02250310941816081F8
:101E2000805C9F4F0E9472111F910F91089500973F
:101E300011F00C94FC0E0895CF93DF93EC01FC019C
:101E4000E258FF4F71836083805C9F4F0E940D11A9
:101E5000CE010E94F10ECE01DF91CF910C94FC0EC9
:101E6000AF92BF92CF92DF92EF92FF920F931F93A8
:101E7000CF93DF937C01EB01A42EB22E6BE072E0D6
:101E8000CE010E94DB218C016FE270E0CE010E9446
:101E9000D021009739F46CE570E0CE010E94D0218A
:101EA000009711F0EC012196C70180589F4F6C01FB
:101EB0000115110549F4FE0101900020E9F7EC1B22
:101EC000EF5FD601EC9305C00C1B1D0B0E5FFC01F0
:101ED0000083F1E8EF0EF11CD7018D919C910E94D7
:101EE0002921F601008110E0C80101960E9494208A
:101EF000D7018D939C93FC01E00FF11F1082FC0130
:101F0000A082B182A80142505109BE010296DF9120
:101F1000CF911F910F91FF90EF90DF90CF90BF90E6
:101F2000AF900C94C121FC01E258FF4F8081918158
:101F3000DC01ED91FC910480F581E02D0994CF93B3
:101F4000DF93EC01FC01E258FF4F80819181DC01BD
:101F5000ED91FC910680F781E02D09958F3FBFEF51
:101F60009B0741F0682FCE018E5B9F4FDF91CF9191
:101F70000C94F113DF91CF910895805C9F4F0C94E6
:101F80001111805C9F4F0C94481150E0805C9F4F72
:101F90000C940B12805C9F4F0C945C12FC01E25875
:101FA000FF4F80819181DC01ED91FC910190F081E6
:101FB000E02D0994603DD9F028F4603971F0603C5F
:101FC00089F00895643FC1F0653FD9F0603EE9F4BF
:101FD0005093F6034093F50308955093F403409310
:101FE000F30308955093EE034093ED030895509347
:101FF000EC034093EB0308955093F2034093F103F5
:1020000008955093F0034093EF0308956F3F21F438
:102010005093E6034093E50308955093E8034093FB
:10202000E703089587EF93E00C947B0E2F923F9285
:102030005F926F927F928F929F92AF92BF92CF9258
:10204000DF92EF92FF920F931F93CF93DF937C0168
:102050003901DA015C90232B19F466246A94762CFA
:102060008A011A01260E371EC0E0D0E0812C912C87
:1020700087E0C82ED12C0215130509F444C086143C
:10208000970408F068C05801F70180819181FC0134
:10209000A081B181F80121918F01E22F0C2E01C0A6
:1020A000EE0F0A94EAF7652D6E2B6F77ED91FC9198
:1020B00009958FEF881A980AD5016C9170E0C601D6
:1020C0008C1B9D0B02C0759567958A95E2F7562E7D
:1020D0002196C730D10578F28614970461F2F70192
:1020E00080819181DC01ED91FC91652D6F770190EC
:1020F000F081E02D0995BFEF8B1A9B0A551C5524E2
:10210000551C2797E6CF209731F18614970418F5D0
:10211000F70180819181DC01ED91FC9161E070E03B
:1021200001C0660FCA95EAF7615065210190F08100
:10213000E02DDF91CF911F910F91FF90EF90DF90F5
:10214000CF90BF90AF909F908F907F906F905F9057
:102150003F902F900994DF91CF911F910F91FF90A5
:10216000EF90DF90CF90BF90AF909F908F907F9037
:102170006F905F903F902F900895DF92EF92FF92C3
:102180000F931F93CF93DF93FC01A081B181109730
:10219000C1F179018A01D62EEC01ED91FC911197E4
:1021A0000190F081E02D60EFCD0109958881998142
:1021B000DC01ED91FC910190F081E02D6FE6099535
:1021C00088819981DC01ED91FC910190F081E02DF5
:1021D0006D2D09959801A701B801CE010E94161036
:1021E00088819981DC01ED91FC910190F081E02DD5
:1021F00067EFDF91CF911F910F91FF90EF90DF90EC
:102200000994DF91CF911F910F91FF90EF90DF9094
:102210000895FC01118210820895FC01718360838E
:1022200008950F931F93CF93DF9300D0CDB7DEB700
:102230005A834983FC01A081B181109711F18C016F
:102240006031B8F441155044A0F4ED91FC91119720
:10225000606E0190F081E02DCD01099522E030E023
:10226000AE014F5F5F4F62E070E0C8010E94161040
:1022700008C09E012F5F3F4F42E050E0C8010E941E
:10228000BD100F900F90DF91CF911F910F91089586
:102290000F931F93CF93DF9300D0CDB7DEB75A8350
:1022A0004983FC01A081B1811097A9F08C01ED91C7
:1022B000FC9111976F7060690190F081E02DCD0164
:1022C000099522E030E0AE014F5F5F4F62E070E0C1
:1022D000C8010E9416100F900F90DF91CF911F91AF
:1022E0000F910895CF92DF92EF92FF920F931F9379
:1022F000CF93DF93FC01A081B181109709F450C006
:1023000068018901F42EE62EEC01ED91FC91119704
:102310000190F081E02D60EFCD01099588819981D0
:10232000DC01ED91FC910190F081E02D69E70995C8
:1023300088819981DC01ED91FC910190F081E02D83
:102340006E2D099588819981DC01ED91FC910190B8
:10235000F081E02D6F2D099576010C0D1D1DE01605
:10236000F10661F020E030E0A70161E070E0CE010D
:102370000E941610BFEFEB1AFB0AF1CF88819981FA
:10238000DC01ED91FC910190F081E02D67EFDF9190
:10239000CF911F910F91FF90EF90DF90CF90099414
:1023A000DF91CF911F910F91FF90EF90DF90CF9031
:1023B00008950F931F93CF93DF93FC01A081B18108
:1023C000109721F1142F062FEC01ED91FC9111973C
:1023D0000190F081E02D69EFCD0109958881998107
:1023E000DC01ED91FC910190F081E02D602F0995C9
:1023F00088819981DC01ED91FC910190F081E02DC3
:10240000612FDF91CF911F910F910994DF91CF91AF
:102410001F910F910895CF92DF92EF92FF920F9349
:102420001F93CF93DF93FC01A081B1811097D9F165
:1024300069017A01C62F8C01ED91FC9111970190F1
:10244000F081E02D60EFCD010995D8018D919C912F
:10245000DC01ED91FC910190F081E02D6C2F09954C
:10246000E601EC0CFD1CCE15DF0551F020E030E05C
:10247000AE0161E070E0C8010E9416102196F3CF12
:10248000F80180819181DC01ED91FC910190F08156
:10249000E02D67EFDF91CF911F910F91FF90EF90AB
:1024A000DF90CF900994DF91CF911F910F91FF9012
:1024B000EF90DF90CF9008959B01FB0101900020E9
:1024C000E9F73197AF01461B570B61E70C940B12EC
:1024D000FC017283618354834383158216821086C4
:1024E000178211861386128615861486178616861D
:1024F000118A108A138A128A158A148A178A168AF0
:10250000118E108E138E128E158E148E178E168EBF
:1025100011A210A213A212A215A214A217A216A20F
:1025200011A610A613A612A615A614A617A616A6DF
:1025300011AA10AA13AA12AA15AA14AA17AA16AAAF
:1025400011AE10AE13AE12AE81E0672B09F080E041
:1025500080830895FC01603DD9F028F4603971F062
:10256000603C89F00895643FC1F0653FD9F0603E5A
:10257000E9F455A344A335872487089557A346A3B8
:1025800037872687089551A740A7318B208B089560
:1025900053A742A7338B228B089555A744A7358BA9
:1025A000248B089557A746A7378B268B0895693744
:1025B00029F4FC0157AB46AB318F208F0895FC0105
:1025C000693F19F06F3F31F0089551AF40AF338F3D
:1025D000228F089553AF42AF33A322A308956137EA
:1025E00029F4FC0153AB42AB378F268F0895FC01D1
:1025F00055AB44AB31A320A30895EF92FF920F9304
:102600001F93CF93DF931F92CDB7DEB77C018A0172
:10261000DC0113968D919C9114974817590748F443
:10262000F70141815281FA01E00FF11F608380E0E0
:102630001AC0D701D096ED91FC91D197309711F443
:1026400081E011C081E0D7018C935C968D919C91C3
:102650005D9769830995F7018381948169810817E2
:10266000190770F7DDCF0F90DF91CF911F910F9178
:10267000FF90EF900895FA0120E030E0CF01841B35
:10268000950B2617370778F4DA01A20FB31F8C9148
:10269000808311969C91979599279795892B819383
:1026A0002E5F3F4FEBCF0895CF93DF93EC01A981CD
:1026B000BA816C91613791F1693709F04FC0EEA989
:1026C000FFA9309709F45AC06A857B85633071058C
:1026D00038F420E030E040E050E060E070E019C005
:1026E000AD014D5F5F4F635071090E943B13AC0118
:1026F0004D5F5F4F60E0CE010E94FD12E981FA81DB
:102700009F012D5F3F4F428150E0618170E0EEA953
:10271000FFA9888D998DDF91CF9109948AA99BA9F2
:10272000892B61F1AD014F5F5F4F6A857B856150F9
:102730007109CE010E943B13AC014F5F5F4F60E017
:10274000CE010E94FD1269817A816F5F7F4FEAA9F5
:10275000FBA98E8D9F8DDF91CF910994ECA9FDA9E6
:10276000309761F09D012F5F3F4F4A855B85415057
:10277000510988A199A1DF91CF910994DF91CF915F
:102780000895DC0118961C921E92179715961C92BC
:10279000159716961C92169780E090E013962D914F
:1027A0003C9114978217930748F41196ED91FC9190
:1027B0001297E80FF91F10820196F0CF19961C921C
:1027C00019971B961C921E921A97DA96ED91FC911E
:1027D000DB97309729F092968D919C91939709946D
:1027E0000895CF93DF93EC018985882399F0673FA3
:1027F00031F41986CE01DF91CF910C9454134A85A0
:102800005B85CE010E94FD128A859B8501969B8780
:102810008A87BFC04F8158854115510509F47FC093
:1028200067FD7DC04150510958874F83CE010E94FA
:10283000FD128F819885892B09F0ABC08D8188238B
:1028400009F4A7C0803D09F45CC030F48039F9F088
:10285000803C09F44AC061C0843F69F1853FC1F101
:10286000803E09F05AC0ECA1FDA1309709F455C093
:10287000A981BA818C9111964C9150E090E8899F82
:10288000400D511D11246E818C859D8545C0EEA1A2
:10289000FFA1309709F441C0A981BA818C911196AA
:1028A0004C9150E090E8899F400D511D11246E819C
:1028B0008E859F8531C0ECA5FDA5309771F1A9816A
:1028C000BA814C9150E011966C918C899D8924C0FD
:1028D000EEA5FFA5309709F1A981BA814C9150E08E
:1028E00011966C918E899F8917C0E8A5F9A530973C
:1028F000A1F0A981BA814C9150E06E8188899989B3
:102900000BC0EAA5FBA5309741F0A981BA814C9193
:1029100050E06E818A899B8909951D823AC0603F8B
:1029200020F4862F8F708E83607F603F21F158F4F2
:10293000603CD9F018F46039A9F02BC0603DA9F0D3
:10294000603E81F026C0693FD9F028F48CE0860F04
:10295000823040F01EC06F3FE1F4CE01DF91CF9195
:102960000C94C11382E090E002C081E090E098876F
:102970008F836D830EC081E089871B861A8609C00C
:10298000E8ADF9AD309729F08A8D9B8DDF91CF911D
:102990000994DF91CF9108951F920F920FB60F9275
:1029A00011242F933F934F935F936F937F938F9354
:1029B0009F93AF93BF93EF93FF93E0911705F0912F
:1029C0001805309709F451C0968DA685B785858581
:1029D00091FF04C09C91892329F447C09C918923CD
:1029E00009F043C0A389B4899C9185898095892386
:1029F0008C93868997890197F1F7608D718DA685F3
:102A0000B785558538E020E0CB010197F1F7822F9B
:102A100090E095958795282F4C91452309F02068E3
:102A2000315091F7868D81FD20958091D60490E0FC
:102A300001968F7399273091D504381749F0A091EA
:102A4000D604B0E0A952BB4F2C938093D60403C0A8
:102A5000868D8160868F828D938D0197F1F7A38992
:102A6000B4899C918589892B8C93FF91EF91BF91BB
:102A7000AF919F918F917F916F915F914F913F9116
:102A80002F910F900FBE0F901F9018951F920F92CD
:102A90000FB60F9211242F933F938F939F93AF9371
:102AA000BF9380911A0590911B05A0911C05B091D0
:102AB0001D053091190526E0230F2D3720F40296CD
:102AC000A11DB11D05C029E8230F0396A11DB11D4D
:102AD0002093190580931A0590931B05A0931C055C
:102AE000B0931D0580911E0590911F05A0912005B2
:102AF000B09121050196A11DB11D80931E059093F3
:102B00001F05A0932005B0932105BF91AF919F9120
:102B10008F913F912F910F900FBE0F901F9018959E
:102B20002FB7F89460911A0570911B0580911C05D0
:102B300090911D052FBF08953FB7F89480911E0511
:102B400090911F05A0912005B091210526B5A89B65
:102B500005C02F3F19F00196A11DB11D3FBFBA2F2F
:102B6000A92F982F8827820F911DA11DB11DBC018F
:102B7000CD0143E0660F771F881F991F4A95D1F753
:102B800008958F929F92AF92BF92CF92DF92EF9271
:102B9000FF926B017C010E949C154B015C01C114EA
:102BA000D104E104F10401F10E947D1F0E949C15F3
:102BB000DC01CB0188199909AA09BB09883E934019
:102BC000A105B10560F321E0C21AD108E108F108BE
:102BD00088EE880E83E0981EA11CB11CC114D1049C
:102BE000E104F10419F7DBCFFF90EF90DF90CF9075
:102BF000BF90AF909F908F9008958330910528F0FB
:102C0000880F991F04970197F1F70895789484B578
:102C1000826084BD84B5816084BD85B5826085BDD8
:102C200085B5816085BDEEE6F0E0808181608083BE
:102C3000E1E8F0E0108280818260808380818160A1
:102C40008083E0E8F0E0808181608083E1E9F0E06A
:102C5000808182608083808181608083E0E9F0E010
:102C6000808181608083E1ECF0E0808184608083FA
:102C7000808182608083808181608083E3ECF0E0EA
:102C8000808181608083E0ECF0E0808182608083DD
:102C9000E2ECF0E0808181608083EAE7F0E080810F
:102CA0008460808380818260808380818E7F808346
:102CB0008081806880830895823108F08251E82FF6
:102CC000F0E0E45FFE4FE49180917B00E3FB22277C
:102CD00020F930E095E0220F331F9A95E1F78F7DC0
:102CE000282B20937B00E7708091090120E4829FCC
:102CF000C0011124E82BE0937C0080917A0080646D
:102D000080937A0080917A0086FDFCCF80917800D4
:102D10002091790090E0922B08951F93CF93DF9339
:102D2000182FEB0161E00E946217209711F460E018
:102D300004C0CF3FD10539F461E0812FDF91CF91FD
:102D40001F910C949E17E12FF0E0E85EFE4FE49196
:102D50004E2F50E0FA013197EF30F10508F06CC0CA
:102D6000E859FF4F0C94742084B5806884BDC7BDBA
:102D700068C084B5806284BDC8BD63C08091800096
:102D8000806880938000D0938900C093880059C0E8
:102D900080918000806280938000D0938B00C093EC
:102DA0008A004FC080918000886080938000D0931B
:102DB0008D00C0938C0045C0809190008068809306
:102DC0009000D0939900C09398003BC080919000F0
:102DD000806280939000D0939B00C0939A0031C092
:102DE00080919000886080939000D0939D00C09364
:102DF0009C0027C08091C00080688093C0008091B3
:102E0000C0008F7B8093C000C093CF001AC0809118
:102E1000C00080628093C000C093D00012C0809137
:102E2000C20088608093C2008091C2008B7F809333
:102E3000C200C093D20005C0C038D1050CF07CCFD1
:102E400076CFDF91CF911F91089590E0FC013197EB
:102E5000EF30F105B0F5E958FF4F0C9474208091E4
:102E600080008F7703C0809180008F7D80938000E9
:102E7000089580918000877FF9CF84B58F7702C055
:102E800084B58F7D84BD0895809190008F7707C0B1
:102E9000809190008F7D03C080919000877F809308
:102EA000900008958091C0008F7703C08091C0008A
:102EB0008F7D8093C00008958091C200877F8093AA
:102EC000C2000895CF93DF9390E0FC01E85DFE4FD0
:102ED0002491FC01EA5BFE4F8491882361F190E02C
:102EE000880F991FFC01E058FE4FC591D491FC0159
:102EF000EE58FE4FA591B491611109C09FB7F894A7
:102F00008881209582238883EC912E230BC0623028
:102F100061F49FB7F8943881822F8095832388834A
:102F2000EC912E2B2C939FBF06C08FB7F894E881AD
:102F30002E2B28838FBFDF91CF9108951F93CF93BE
:102F4000DF93282F30E0F901E85EFE4F8491F9010C
:102F5000E85DFE4FD491F901EA5BFE4FC491CC23AA
:102F6000C9F0162F81110E942517EC2FF0E0EE0F0B
:102F7000FF1FEE58FE4FA591B4918FB7F894111131
:102F800005C09C91ED2FE095E92302C0EC91ED2B5B
:102F9000EC938FBFDF91CF911F910895CF93DF9373
:102FA000282F30E0F901E85EFE4F8491F901E85DD9
:102FB000FE4FD491F901EA5BFE4FC491CC2391F00E
:102FC00081110E942517EC2FF0E0EE0FFF1FEC5946
:102FD000FE4FA591B491EC91ED2381E090E021F4B6
:102FE00080E002C080E090E0DF91CF910895CF9320
:102FF000DF931F92CDB7DEB76983DC01ED91FC91C1
:103000000280F381E02D41E050E0BE016F5F7F4F11
:1030100009950F90DF91CF910895CF93DF93EC0145
:103020008C859D8597FF05C082E00E94EB1B9D87E4
:103030008C878C859D85DF91CF91089583E00C94DA
:10304000801EFC018485958597FD06C082E00E9464
:10305000951B90E00196089582E00E94951B90E0F8
:103060000895FC018485958597FD05C02FEF3FEFFE
:1030700035872487089582E00C94EB1BCF93DF9370
:10308000EC0180911501882331F083E00E941C1C23
:103090001816190634F081E090E09B838A8380E063
:1030A00090E0DF91CF910895FC0190819E5F908325
:1030B00042E450E06EE871E080E80C94CD1CFC0125
:1030C00081819081913A59F4813209F048C047E0FA
:1030D00050E06EE071E080E00E94CD1C76C091323D
:1030E000F1F5833291F49381892F90E0982F88270E
:1030F0002281822BA0E0B0E080930A0190930B0123
:10310000A0930C01B0930D0160C0803239F467E0E8
:1031100070E08EE091E00E94F41C06C0823209F05B
:1031200054C082818093150180917205882319F023
:10313000EEEFFAE002C0E0E0F8E080910E0190913D
:103140000F01A0911001B0911101803B9440A105A5
:10315000B10539F48091150180FF1FC002C080E0E5
:1031600008950FB6F894A8958091600088618093C7
:103170006000109260000FBEA895EE3F8AE0F8074D
:1031800039F08091FE0A9091FF0A918380831DC0DF
:103190001092FF0A1092FE0A18C0EE3F2AE0F207D2
:1031A00031F0808191819093FF0A8093FE0A87E736
:1031B00097E7918380839BE088E10FB6F894A89508
:1031C000809360000FBE9093600081E00895E2E27A
:1031D000F5E01382128288EE93E0A0E0B0E08483F1
:1031E0009583A683B78384E192E0918380838FEFF8
:1031F0009FEF958784870895FC01918D228D892FFB
:1032000090E0805C9F4F821B91098F7399270895EE
:10321000FC01918D828D981731F0828DE80FF11DA0
:10322000858D90E008958FEF9FEF0895FC01918DBB
:10323000828D981761F0828DDF01A80FB11D5D9618
:103240008C91928D9F5F9F73928F90E008958FEF86
:103250009FEF08958AE79AE1892B49F080E090E09A
:10326000892B29F00E947A1A81110C94000008958C
:10327000FC01848DDF01A80FB11DA35ABF4F2C9113
:10328000848D90E001968F739927848FA689B789E2
:103290002C93A089B1898C9180648C93938D848DBB
:1032A000981306C00288F389E02D80818F7D80838A
:1032B0000895CF93DF93EC01888D8823C9F0EA89C4
:1032C000FB89808185FD05C0A889B9898C9186FD1F
:1032D0000FC00FB607FCF5CF808185FFF2CFA8891C
:1032E000B9898C9185FFEDCFCE010E943819E7CFC7
:1032F000DF91CF910895EF92FF920F931F93CF9399
:10330000DF93EC0181E0888F9B8D8C8D981305C035
:10331000E889F989808185FD24C0F62E0B8D10E0A7
:103320000F5F1F4F0F731127E02E8C8DE8120CC01A
:103330000FB607FCFACFE889F989808185FFF5CFC0
:10334000CE010E943819F1CF8B8DFE01E80FF11DDF
:10335000E35AFF4FF0820B8FEA89FB8980818062FC
:1033600007C0EE89FF896083E889F98980818064DC
:10337000808381E090E0DF91CF911F910F91FF90CA
:10338000EF900895CF92DF92EF92FF921F93CF9329
:10339000DF93EC016A017B01122F60E874E88EE193
:1033A00090E0A70196010E943320DA01C90101973C
:1033B000A109B109B695A79597958795AC01E889BC
:1033C000F98982E08083411580E15807A8F0E889F7
:1033D000F989108260E472E48FE090E0A701960121
:1033E0000E943320BA01A9014150510961097109B4
:1033F0007695679557954795EC85FD855083EE85C5
:10340000FF854083188EEC89FD891083EA89FB894A
:10341000808180618083EA89FB89808188608083E4
:10342000EA89FB89808180688083EA89FB898081C1
:103430008F7D8083DF91CF911F91FF90EF90DF9080
:10344000CF9008951F920F920FB60F9211242F93D1
:103450008F939F93EF93FF93E0918305F091840501
:103460008081E0918905F0918A0582FD12C09081EA
:1034700080918C058F5F8F7320918D05821751F09D
:10348000E0918C05F0E0ED58FA4F958F80938C0514
:1034900001C08081FF91EF919F918F912F910F90AB
:1034A0000FBE0F901F9018951F920F920FB60F929C
:1034B00011242F933F934F935F936F937F938F9339
:1034C0009F93AF93BF93EF93FF9383E795E00E94A1
:1034D0003819FF91EF91BF91AF919F918F917F919B
:1034E0006F915F914F913F912F910F900FBE0F9071
:1034F0001F90189583E795E00E94FC1821E0892B26
:1035000009F420E0822F0895E3E7F5E013821282A8
:1035100088EE93E0A0E0B0E084839583A683B78330
:1035200084E292E0918380838DEC90E0958784879C
:103530008CEC90E09787868788EC90E0918B808B6D
:1035400089EC90E0938B828B8AEC90E0958B848B56
:103550008EEC90E0978B868B118E128E138E148ECC
:103560000895CF92DF92EF92FF920F931F93CF9324
:10357000DF936C017A018B01C0E0D0E0CE15DF054E
:1035800089F0D8016D918D01D601ED91FC910190EA
:10359000F081E02DC6010995892B11F47E0102C04E
:1035A0002196ECCFC701DF91CF911F910F91FF9032
:1035B000EF90DF90CF900895615030F02091F100AE
:1035C000FC0120830196F8CF289884E680931806A2
:1035D00008954091130650911406209111063091E0
:1035E000120642175307B4F49091E8009570E1F386
:1035F0009091E80092FD19C08093F100809113062C
:103600009091140601968F739927892B19F48EEFE8
:103610008093E80080911306909114060196909390
:1036200014068093130681E0089580E00895CF92F8
:10363000DF92EF92FF920F931F93CF93DF931F922E
:10364000CDB7DEB7182F062FE42E862F880F8E5F9A
:1036500099830E94E91A83E00E94E91AF12EC12E93
:103660009981D92E8C2D8F19801798F4F601E7FED9
:1036700002C0849101C080810E94E91A182F80E065
:103680000E94E91A8123FFEFCF1ADF0A8111EACFE6
:1036900001C081E00F90DF91CF911F910F91FF90BA
:1036A000EF90DF90CF9008958091D7008160809354
:1036B000D70080EA8093D80089B58F7E89BD89B50F
:1036C000826089BD09B400FEFDCF61E070E080E05A
:1036D00090E00E94C1158091D8008F7C806180931A
:1036E000D8008091E000807F8093E0000895CF9320
:1036F000DF931F92CDB7DEB71982CE0101960E94EB
:1037000054180E940320BE016F5F7F4F0E947E1FEE
:1037100089810F90DF91CF9108952FB7FC0120830D
:10372000F89467706093E9000895CF93DF931F9238
:10373000CDB7DEB7682FCE0101960E948D1B809118
:10374000F20099819FBF0F90DF91CF910895EF9282
:10375000FF920F931F93CF93DF931F92CDB7DEB7E6
:1037600090911706992311F057FF03C08FEF9FEF39
:103770002AC08A017B01682FCE0101960E948D1B11
:103780008091F20090E0A801801791070CF4AC0141
:10379000842FF70194E6815038F02898909318060A
:1037A0002091F1002193F7CF4115510521F080912F
:1037B000F200882321F089818FBFCA0104C08BE603
:1037C0008093E800F8CF0F90DF91CF911F910F9178
:1037D000FF90EF900895CF93DF931F92CDB7DEB7A0
:1037E00041E050E0BE016F5F7F4F0E94A71B019731
:1037F00019F4898190E002C08FEF9FEF0F90DF9165
:10380000CF910895CF93DF931F92CDB7DEB7682F86
:10381000CE0101960E948D1B9091E800892F807245
:1038200095FF04C09091F20080E4891B99819FBFAD
:103830000F90DF91CF9108955F926F927F928F9258
:103840009F92AF92BF92CF92DF92EF92FF920F932F
:103850001F93CF93DF931F92CDB7DEB7582E6B0126
:10386000B42E052F80911706811103C08FEF9FEFB3
:1038700078C08091150680FF05C08091E0008260CD
:103880008093E000EB2CF02EA12C8AEF982E852D52
:103890008072782E852D8074682E9AE3892EE1142B
:1038A000F10409F456C0852D0E94021C182F8111C5
:1038B0000AC09A949920D1F261E070E080E090E033
:1038C0000E94C115ECCF90E0E816F9060CF41E2D0D
:1038D000652DCE0101960E948D1B8091E80085FF29
:1038E00035C0212F30E0E21AF30A772029F0115079
:1038F000A8F01092F100FBCFF60157FE07C011505F
:1039000058F084918093F1003196F9CF115020F056
:1039100081918093F100FACFC20ED31EAA2019F034
:103920008092E8000BC08091E80085FD09C080927C
:10393000E800AA24A394E114F10441F0A12C06C0EC
:10394000E114F10419F461108092E80089818FBFBD
:10395000A6CFA110A8CF5D9884E6809319068B2D81
:10396000902F0F90DF91CF911F910F91FF90EF90CB
:10397000DF90CF90BF90AF909F908F907F906F908F
:103980005F9008951092E9001092140610921306A9
:1039900090931206809311060895DF92EF92FF92A2
:1039A0000F931F93CF93DF93D82E8A017B01E40EF0
:1039B000F51EEB01CE15DF0571F0D7FE03C0FE0149
:1039C000849101C088810E94E91A21968111F2CF69
:1039D0008FEF9FEF01C0C801DF91CF911F910F9131
:1039E000FF90EF90DF900895BF92CF92DF92EF9219
:1039F000FF920F931F93CF93DF936C018B01EB0129
:103A00009BEFB92E2097C1F07E01C134D1051CF087
:103A100080E4E82EF12C8091E80082FFFCCFC80101
:103A20008C1B9D0B6E2D8C0D9D1D0E94DC1AB0927F
:103A3000E800CE19DF09E6CFC801DF91CF911F91D1
:103A40000F91FF90EF90DF90CF90BF9008951F925D
:103A50000F920FB60F921124CF92DF92EF92FF9246
:103A60000F931F932F933F934F935F936F937F9386
:103A70008F939F93AF93BF93EF93FF93CF93DF9376
:103A8000CDB7DEB76C97DEBFCDBF1092E900809155
:103A9000E80083FF16C168E0CE0145960E94DC1A5B
:103AA00082EF8093E8008D8987FF05C09091E80040
:103AB00090FFFCCF03C09EEF9093E800982F907684
:103AC00009F0E3C09E892F89188D91110CC08038B0
:103AD00029F4809116068093F10002C01092F10043
:103AE0001092F100E7C0422F50E0512B913051F479
:103AF0008111E0C04130510509F0DCC0809116060B
:103B00008D7F0BC0933061F48111D4C041305105D9
:103B100009F0D0C080911606826080931606CAC054
:103B2000953041F48091E80080FFFCCF206820931D
:103B3000E300C0C0963009F07EC0EB8CFC8C1230E4
:103B400069F580E090E00E94C21C0E94771B99E01A
:103B50009E012F5F3F4F6901F901292F11922A958C
:103B6000E9F799831A8391E09E8390EA98879AEF08
:103B700099872091130630911406275F3F4F3C83AD
:103B80002B838D83C7010E94C21C49E050E0B6011F
:103B900080E00E94CD1C0E94771B8CC0C7010E9450
:103BA000C21C0E940320BE016B5E7F4F0E94A71FB4
:103BB000009719F00CF07EC081C0113061F1133014
:103BC00009F07CC08F89882349F1823029F440E8CC
:103BD00065E180EF91E006C0813039F440E86DE0A6
:103BE00082EE91E00E94171B63C0833009F066C02B
:103BF0000E9403208E010F5F1F4FB8010E94C61F55
:103C0000F80101900020E9F73197BF01601B710BAB
:103C100040E0C801E7CF60ED71E002C066E072E00D
:103C20006115710509F44AC0FB01449150E080E838
:103C30000E94CD1C3FC0973009F440C0983021F459
:103C400081E08093F10036C09930A1F58370B1F521
:103C5000E7E1F1E081E021E036E39081992361F032
:103C60008093E9002093EB0091919093EC003093C6
:103C7000ED008F5F873089F78EE78093EA0010921E
:103C8000EA008F898093170615C08B8D9C8D0E944A
:103C9000C21C898D811105C0CE0145960E945F1816
:103CA00007C00E940320BE016B5E7F4F0E94E51F8C
:103CB000882321F08EEF8093E80003C081E2809397
:103CC000EB006C960FB6F894DEBF0FBECDBFDF9150
:103CD000CF91FF91EF91BF91AF919F918F917F9184
:103CE0006F915F914F913F912F911F910F91FF9095
:103CF000EF90DF90CF900F900FBE0F901F90189510
:103D00008093E9008091F200882319F08AE3809380
:103D1000E80008951F920F920FB60F9211242F936F
:103D20003F934F935F936F937F938F939F93AF9343
:103D3000BF93CF93EF93FF93C091E1008091E10097
:103D4000837F8093E100C3FF0FC01092E90081E000
:103D50008093EB001092EC0082E38093ED001092D0
:103D6000170688E08093F000C2FF19C083E00E942C
:103D7000801E80911906882339F0809119068150A0
:103D800080931906882389F180911806882339F0D9
:103D900080911806815080931806882341F1C4FF52
:103DA00010C08091E2008E7E81608093E20080915D
:103DB000E1008F7E8093E100809115068E7E806108
:103DC00011C0C0FF16C08091E2008E7E806180939A
:103DD000E2008091E1008E7E8093E10080911506E3
:103DE0008E7E81608093150604C05D9ACDCF289A9F
:103DF000D6CFFF91EF91CF91BF91AF919F918F91CE
:103E00007F916F915F914F913F912F910F900FBED6
:103E10000F901F9018951092170610921606109288
:103E200015060E94541B8091E1008E7E8093E10074
:103E30008DE08093E200559A209AEEEFFFE785919E
:103E400094918B3F9C4D19F481E080937205089505
:103E50004F925F926F927F92AF92BF92CF92DF921A
:103E6000EF92FF920F931F93CF93DF93CDB7DEB7FF
:103E700029013A019B01AC0124193509460957096A
:103E800089899A89AB89BC89BC01CD016A197B09F2
:103E90008C099D090E941720A80197012419350952
:103EA000460957090E945520CA01B9016A0D7B1DB8
:103EB0008C1D9D1DDF91CF911F910F91FF90EF9071
:103EC000DF90CF90BF90AF907F906F905F904F90BA
:103ED000089508950E9406160E94691F80E196E0E9
:103EE0000E940B1F0E94F504CAE2D9E10E941B0840
:103EF0002097E1F30E942A19F9CF0895EF92FF92DB
:103F00000F931F93CF93DF937B01FC01C281D38179
:103F100000E010E0209781F0E881F9810280F381D0
:103F2000E02DB701CE01099597FD08C0080F191FB4
:103F30000884D985C02DEECFC80102C08FEF9FEF56
:103F4000DF91CF911F910F91FF90EF9008950F9304
:103F50001F93CF93DF938B01FC01C281D381209704
:103F600071F0E881F9810480F581E02DB801CE017E
:103F70000995009731F40884D985C02DF0CF80E0F1
:103F800090E0DF91CF911F910F9108950F931F93B0
:103F9000CF93DF938B01FC01C281D381209771F015
:103FA000E881F9810680F781E02DB801CE010995FD
:103FB000080F111D0884D985C02DF0CFF80110829B
:103FC000DF91CF911F910F9108950F931F93CF937E
:103FD000DF938B01FC01C281D381209771F0E881CE
:103FE000F9810190F081E02DB801CE010995811190
:103FF00005C00884D985C02DF0CF80E0DF91CF9136
:104000001F910F91089580911E0681110DC082E0CD
:1040100080931A0684E080931B0610921D0610926E
:104020001C0681E080931E068AE196E00895DB017C
:104030008F939F930E947A20BF91AF91A29F800D92
:10404000911DA39F900DB29F900D11240895991B6F
:1040500079E004C0991F961708F0961B881F7A957F
:10406000C9F780950895A1E21A2EAA1BBB1BFD017A
:104070000DC0AA1FBB1FEE1FFF1FA217B307E40747
:10408000F50720F0A21BB30BE40BF50B661F771F9F
:10409000881F991F1A9469F760957095809590957F
:1040A0009B01AC01BD01CF010895052E97FB1EF4C5
:1040B00000940E946C2057FD07D00E94332007FC1B
:1040C00003D04EF40C946C2050954095309521957A
:1040D0003F4F4F4F5F4F0895909580957095619534
:1040E0007F4F8F4F9F4F0895EE0FFF1F0590F49164
:1040F000E02D09940E948520A59F900DB49F900DFE
:10410000A49F800D911D11240895A29FB001B39F1B
:10411000C001A39F700D811D1124911DB29F700DD0
:10412000811D1124911D0895CF93DF938230910555
:1041300010F482E090E0E0912806F091290620E05A
:1041400030E0C0E0D0E0309711F140815181481754
:104150005907C0F04817590761F48281938120976D
:1041600019F09B838A832BC090932906809328069D
:1041700026C02115310519F04217530718F49A018A
:10418000BE01DF01EF010280F381E02DDCCF2115BC
:10419000310509F1281B390B2430310590F41296B2
:1041A0008D919C9113976115710521F0FB0193830B
:1041B000828304C09093290680932806FD013296DD
:1041C00044C0FD01E20FF31F819391932250310906
:1041D0002D933C933AC02091260630912706232B3D
:1041E00041F420910201309103013093270620937E
:1041F000260620910001309101012115310541F47D
:104200002DB73EB74091040150910501241B350B99
:10421000E0912606F0912706E217F307A0F42E1B83
:104220003F0B2817390778F0AC014E5F5F4F24171A
:10423000350748F04E0F5F1F509327064093260620
:104240008193919302C0E0E0F0E0CF01DF91CF9144
:1042500008950F931F93CF93DF93009709F48CC0B9
:10426000FC013297138212820091280610912906D0
:104270000115110581F420813181820F931F209156
:104280002606309127062817390779F5F093270677
:10429000E093260671C0D80140E050E0AE17BF079A
:1042A00050F412962D913C911397AD0121153105D3
:1042B00009F1D901F3CF9D01DA01338322836081B3
:1042C0007181860F971F8217930769F4EC0128818B
:1042D0003981260F371F2E5F3F4F318320838A811C
:1042E0009B8193838283452B29F4F0932906E093E5
:1042F000280642C01396FC93EE931297ED01499164
:1043000059919E01240F351FE217F30771F4808144
:104310009181840F951F029611969C938E938281B2
:10432000938113969C938E931297E0E0F0E0D8016E
:1043300012968D919C911397009719F0F8018C01BA
:10434000F6CF8D919C9198012E5F3F4F820F931F66
:1043500020912606309127062817390769F43097EF
:1043600029F4109229061092280602C013821282A4
:104370001093270600932606DF91CF911F910F918E
:104380000895FB01DC014150504048F001900D922E
:104390000020C9F701C01D9241505040E0F7089538
:1043A000FC0181E090E00190061609F4CF010020A5
:1043B000D1F701970895FB0151915523A9F0BF0151
:1043C000DC014D9145174111E1F759F4CD01019000
:1043D000002049F04D9140154111C9F3FB014111F5
:0E43E000EFCF81E090E001970895F894FFCFB1
:1043EE0000002A068000FF130001FFFFFFFF00E11F
:1043FE0000000000000000C18081000000556E6BBF
:10440E006E6F776E2070696E206D6F646500473A2F
:10441E005CE68891E79A84E99BB2E7ABAFE7A1AC83
:10442E00E7A29F5C6B69746368626F74646F6F72EE
:10443E005C6B69746368626F74646F6F725C6B69D6
:10444E00746368626F74646F6F722E696E6F004969
:10445E0032432052656164204572726F723A205465
:10446E006F6F206D616E792062797465732072654D
:10447E006365697665640049324320526561642044
:10448E004572726F723A20546F6F206665772062A4
:10449E007974657320726563656976656400313081
:1044AE002D6269742061646472657373696E67202E
:1044BE006D6F6465206973206E6F7420796574204A
:1044CE00737570706F7274656400746F6F206D61B8
:1044DE006E79207175657269657300000000002E9B
:1044EE000BFE0AD20ADA0AEE0AFD0A2E637070007B
:1044FE0000000000F7173E18211831180D181E186D
:10450E00000000007B19B11AFC1816190819591968
:1070000055C000006EC000006CC000006AC00000E7
:1070100068C0000066C0000064C0000062C00000DC
:1070200060C000005EC00000FCC400005AC0000048
:1070300058C0000056C0000054C0000052C00000FC
:1070400050C000005DC000004CC000004AC00000FD
:1070500048C0000046C0000044C0000042C000001C
:1070600040C000003EC000003CC000003AC000002C
:1070700038C0000036C0000034C0000032C000003C
:1070800030C000002EC000002CC000002AC000004C
:1070900028C0000026C0000024C0000022C000005C
:1070A00020C000001EC000001CC0000011241FBE34
:1070B000CFEFDAE0DEBFCDBF11E0A0E0B1E0E2E467
:1070C000FFE702C005900D92A43BB107D9F711E08C
:1070D000A4EBB1E001C01D92AD3CB107E1F74FD385
:1070E0002EC78ECFF89410926F001092810081E02D
:1070F00085BF15BE47985D9A289A0C9400000895A4
:107100001F920F920FB60F9211242F938F939F937C
:10711000EF93FF9310928500109284008091B40148
:107120009091B501009741F001979093B50180933C
:10713000B401892B09F45D9A8091B6019091B70151
:10714000009741F001979093B7018093B601892B86
:1071500009F4289A8091BA019091BB01019690930D
:10716000BB018093BA01E0E0F0E0859194918F5FDC
:107170009F4F49F08091B8019091B9010196909389
:10718000B9018093B801FF91EF919F918F912F9159
:107190000F900FBE0F901F90189584E08093E90028
:1071A0000DC08091E8008B778093E80003C08EB318
:1071B000882351F08091E80082FFF9CF8091E800A8
:1071C00085FFEFCF8091F1000895982F83E08093A1
:1071D000E9008091E80085FD0DC08091E8008E7780
:1071E0008093E80003C08EB3882369F08091E800A3
:1071F00080FFF9CF9093F1005D9884E690E0909342
:10720000B5018093B40108954F925F926F927F927F
:107210008F929F92AF92BF92CF92DF92EF92FF92A6
:107220000F931F93CF93DF9384E08093E9008091C5
:10723000E80082FF57C2289884E690E09093B70157
:107240008093B601AADF182F853481F486EA9EE088
:107250009093B9018093B80107B600FCFDCFF9996E
:10726000FECF81E180935700E89503C0843519F47F
:1072700094DF8DE00DC28C34E1F38035D1F3843797
:1072800021F484E4A2DF80E003C2813611F489E5B1
:10729000FFC18134B1F481DF182F7FDF90E0880FC8
:1072A000991FAA2797FDA095BA2F312F330F20E001
:1072B000442737FD4095542F822B932BA42BB52BBD
:1072C000B8C1803711F483E5E3C1833549F4C0E0E8
:1072D000D1E089917ADF21E0C730D207D1F7D9C157
:1072E000863521F481E371DF80E3D2C1833731F445
:1072F00087E86BDF85E969DF8EE1CAC18536B9F4BD
:10730000E0E0F0E093E085E090935700E89507B661
:1073100000FCFDCF80935700E89507B600FCFDCF39
:10732000E058FF4FA0E7E030FA0771F7A2CF8237AD
:1073300039F4E1E0F0E089E0809357008491A8C13E
:10734000863439F4E0E0F0E089E0809357008491DE
:107350009FC18E3439F4E3E0F0E089E08093570078
:10736000849196C1813539F4E2E0F0E089E08093C0
:10737000570084918DC1823631F489E526DF80E0A3
:1073800024DF80E885C1823419F0873609F0E5C032
:107390001092B9011092B80100DF082FFEDEF82E1E
:1073A000FCDE682E8554823008F071C1902F80E099
:1073B000CF2DD0E0C82BD92B10926F00173609F0D3
:1073C0004BC081E180935700E895DD24CC24C39421
:1073D0003FC0E090BD01F090BE010091BF0110914F
:1073E000C001B6E46B16D9F4ED2DF0E0EE29FF29CB
:1073F000E4918E2FEADEDD2081F082E090E0A0E0D3
:10740000B0E0E80EF91E0A1F1B1FE092BD01F092CA
:10741000BE010093BF011093C001DC2418C0D80145
:10742000C701B695A7959795879573D5CEDE82E06F
:1074300090E0A0E0B0E0E80EF91E0A1F1B1FE092EA
:10744000BD01F092BE010093BF011093C0012197CE
:10745000209709F0BECF7DC08090BD019090BE0105
:10746000A090BF01B090C00196E4691609F05DC01C
:1074700083E0F40180935700E89507B600FCFDCF48
:1074800054C0F6E46F1661F5772031F1E090BD014C
:10749000F090BE010091BF011091C0017EDED82E98
:1074A000CC24852D90E08C299D29F7010C01409278
:1074B0005700E895112482E090E0A0E0B0E0E80EEB
:1074C000F91E0A1F1B1FE092BD01F092BE0100933E
:1074D000BF011093C00102C060DE582E742423C087
:1074E000E090BD01F090BE010091BF011091C0017C
:1074F00016950795F794E79450DE682FC70111D5CC
:107500008091BD019091BE01A091BF01B091C001D9
:107510000296A11DB11D8093BD019093BE01A09361
:10752000BF01B093C001219704C05524772444249F
:107530004394209709F0A5CF96E4691641F485E0BD
:10754000F40180935700E89507B600FCFDCF8DE06D
:107550003CDE82E080936F009CC0833471F4009124
:10756000BD011091BE0119DE90E021E0F8010C018F
:1075700020935700E89511247CCE833619F5E090CE
:10758000BD01F090BE010091BF011091C00105DE68
:10759000F701E16090E021E00C0120935700E895AD
:1075A000112482E090E0A0E0B0E0E80EF91E0A1F8E
:1075B0001B1FE092BD01F092BE010093BF0110932A
:1075C000C00157CE8D3661F4E091BD01F091BE014E
:1075D00085E080935700E89507B600FCFDCF49CEC3
:1075E000823551F4E091BD01F091BE0105911491F5
:1075F000812FEBDD802F4CC0843421F5E090BD015C
:10760000F090BE010091BF011091C0011695079541
:10761000F794E794C2DD682FC70183D48091BD0140
:107620009091BE01A091BF01B091C0010296A11D31
:10763000B11D8093BD019093BE01A093BF01B09393
:10764000C00117CE843609F5E090BD01F090BE016F
:107650000091BF011091C001D801C701B695A7954F
:107660009795879556D4B1DD82E090E0A0E0B0E038
:10767000E80EF91E0A1F1B1FE092BD01F092BE0129
:107680000093BF011093C00104C08B3111F08FE350
:107690009CDD83E08093E9009091E8008091E80010
:1076A0008E778093E80095FF04C010C08EB38823C6
:1076B000C9F08091E80080FFF9CF8091E8008E77D3
:1076C0008093E80003C08EB3882361F08091E800C6
:1076D00080FFF9CF84E08093E9008091E8008B7708
:1076E0008093E800DF91CF911F910F91FF90EF9071
:1076F000DF90CF90BF90AF909F908F907F906F90D2
:107700005F904F9008959091C501892F8F778132B6
:1077100049F58091C6018032A1F0813219F5913A84
:1077200009F58091E800877F8093E8008CE091E084
:1077300067E070E025D28091E8008B778093E800C5
:107740000895913279F48091E800877F8093E80072
:107750008CE091E067E070E077D28091E8008E776E
:107760008093E800089582E061EC42E0D1D083E0AC
:1077700061E842E1CDD084E060E842E1C9C01F93F6
:10778000209100081092000844B714BE88E10FB69B
:10779000F89480936000109260000FBE80E8E0E0F3
:1077A000F0E00FB6F89480936100E09361000FBEA3
:1077B00031E035BF92E095BF3F9A209A559A809369
:1077C00061001092610047985D9A289A1092890092
:1077D0008AEF8093880090936F0083E0809381000C
:1077E000859194918F5F9F4F11F03093BC01942F3E
:1077F00041FF19C0809109012817A9F08093000862
:10780000789480911301882339F08091BA01909186
:10781000BB0188579140C8F3F8941092000881E0AA
:10782000809313010CC090FF04C08091BC01882399
:1078300051F493FF09C080910901281729F0809124
:10784000BC01882309F04EDCD4D078941092B901A1
:107850001092B8011EEF20C0D7DC49D38091B80147
:107860009091B901815A9F4010F0109213018091BC
:10787000C1019091C20101969093C2018093C10110
:10788000292F97FF03C0512F591B252F220F28178F
:1078900010F4479801C0479A809113018823E1F6BC
:1078A0008091E00081608093E0001CDC80E090E04B
:1078B0001F910895FA01923049F0933061F09130B0
:1078C000F9F484E191E022E130E01EC086E291E02B
:1078D0002EE330E019C0882329F484E691E024E007
:1078E00030E012C0813029F488E691E02CE230E0EB
:1078F0000BC0823029F486E991E02CE130E004C02D
:1079000080E090E020E030E091838083C901089519
:107910008093E9008091EB0081608093EB001092EE
:10792000ED006093EC004093ED008091EE00881F25
:107930008827881F08958091C50188238CF403C08F
:107940008EB38823B1F08091E80082FFF9CF809157
:10795000E8008B778093E80008958EB3882349F080
:107960008091E80080FFF9CF8091E8008E778093C6
:10797000E8000895EF92FF920F931F9345D04CD0EB
:1079800008ED10E0F80180818F7780838081806826
:10799000808380818F7D808319BC1EBA1092C301C1
:1079A00080EEE82EF12CF70180818B7F8083F80137
:1079B00080818160808380E060E042E0A9DFE1EEC9
:1079C000F0E080818E7F8083E2EEF0E08081816054
:1079D0008083808188608083F70180818E7F8083AF
:1079E000F8018081806180831F910F91FF90EF905B
:1079F0000895E7EDF0E08081816080838AE482BFB2
:107A000081E08093C401B6CFE8EDF0E080818E7F05
:107A100080831092E20008951092DA001092E10043
:107A200008951F920F920FB60F9211242F933F9338
:107A30004F935F936F937F938F939F93AF93BF9376
:107A4000EF93FF938091DA0080FF1AC08091D800F5
:107A500080FF16C08091DA008E7F8093DA008091DB
:107A6000D90080FF0AC019BC82E089BD09B400FEBC
:107A7000FDCF81E08EBB3AD203C019BC1EBA36D20C
:107A80008091E10080FF17C08091E20080FF13C069
:107A90008091E2008E7F8093E2008091E20080611D
:107AA0008093E2008091D80080628093D80019BC56
:107AB00085E08EBB1BD28091E10084FF2BC08091BA
:107AC000E20084FF27C019BC82E089BD09B400FE32
:107AD000FDCF8091D8008F7D8093D8008091E10008
:107AE0008F7E8093E1008091E2008F7E8093E200A0
:107AF0008091E20081608093E2008091C30188233D
:107B000031F48091E30087FD02C081E001C084E090
:107B10008EBBECD18091E10083FF21C08091E20017
:107B200083FF1DC08091E100877F8093E10082E0A8
:107B30008EBB1092C3018091E1008E7F8093E100A3
:107B40008091E2008E7F8093E2008091E20080616C
:107B50008093E20080E060E042E0DADEC7D1FF918E
:107B6000EF91BF91AF919F918F917F916F915F91B5
:107B70004F913F912F910F900FBE0F901F9018952E
:107B80009C014091CB015091CC014617570718F446
:107B9000F90190E044C06115710511F0AB01F8CF17
:107BA0008091E8008E778093E80040E050E0F0CFCD
:107BB0008EB3882309F444C0853009F443C0809112
:107BC000E80083FF02C081E008958091E80082FD13
:107BD00031C08091E80080FF22C08091F300909135
:107BE000F200782F60E0292F30E0262B372B07C0DA
:107BF00081918093F100415050402F5F3F4F4115DC
:107C0000510519F02830310598F390E028303105FE
:107C100009F491E08091E8008E778093E8004115A7
:107C2000510531F6992321F605C08EB3882341F022
:107C3000853041F08091E80082FFF7CF80E0089521
:107C400082E0089583E008959C016115710529F48F
:107C50008091E8008B778093E800F90126C08EB30D
:107C6000882391F1853091F18091E80083FF02C073
:107C700081E008958091E80082FFF1CF06C08091F5
:107C8000F10081936150704059F02091F300809190
:107C9000F200322F20E090E0822B932B892B79F792
:107CA0008091E8008B778093E80061157105B9F643
:107CB00005C08EB3882341F0853041F08091E80003
:107CC00080FFF7CF80E0089582E0089583E0089573
:107CD0000F931F93DF93CF9300D0CDB7DEB7E5ECC2
:107CE000F1E08091F100819381E0ED3CF807C9F764
:107CF0000ADD8091E80083FFE4C08091C501909186
:107D0000C601953009F46DC0963040F4913081F190
:107D1000913070F0933009F0D4C02AC0983009F443
:107D2000A3C0993009F4B2C0963009F0CAC07CC033
:107D3000803809F4C6C0823809F0C3C08091C901F7
:107D400087708093E9008091EB001092E900209108
:107D5000E800277F2093E80090E025E0969587953E
:107D60002A95E1F781708093F1001092F10087C0AD
:107D7000882319F0823009F0A4C08F71823009F095
:107D8000A0C08091C701882331F52091C9012770D7
:107D900009F497C02093E9008091EB0080FF1BC09D
:107DA000933021F48091EB00806213C08091EB004E
:107DB00080618093EB0081E090E002C0880F991F02
:107DC0002A95E2F78093EA001092EA008091EB0096
:107DD00088608093EB001092E9008091E800877F33
:107DE00051C0882309F06DC01091C7011F770FB7EC
:107DF000F8948091E800877F8093E8009CDD809173
:107E0000E80080FFFCCF8091E3008078812B809395
:107E1000E30080688093E300112311F482E001C045
:107E200083E08EBB0FBF4DC08058823008F049C040
:107E30008091C7019091C8016091C901AE014F5F67
:107E40005F4F38DDBC01009709F43BC08091E8002A
:107E5000877F8093E80089819A8192DE8091E80093
:107E60008B778093E8002DC0803859F58091E80029
:107E7000877F8093E8008091C3018093F100809117
:107E8000E8008E778093E80056DD1BC08823C9F494
:107E90009091C7019230A8F48091E800877F809389
:107EA000E8009093C30147DD8091C301882331F43A
:107EB0008091E30087FD02C081E001C084E08EBBB9
:107EC00052DC8091E80083FF0AC08091EB00806261
:107ED0008093EB008091E800877F8093E8000F900B
:107EE0000F90CF91DF911F910F91089508951F93E7
:107EF0008EB3882361F01091E9001092E90080911F
:107F0000E80083FF01C0E4DE17701093E9001F91C1
:107F10000895F999FECF92BD81BDF89A992780B551
:107F20000895262FF999FECF1FBA92BD81BD20BDBD
:107F30000FB6F894FA9AF99A0FBE01960895F8943C
:027F4000FFCF71
:107F42004341544552494E41007700080000000069
:107F52000000080112011001020000088D0E00ABA2
:107F620001000201000109023E0002010080320903
:107F72000400000102020100052400100104240291
:107F8200040524060001070582030800FF09040115
:107F920000020A0000000705040210000107058321
:107FA20002100001040309042C034C0069006E0056
:107FB2006B0049007400200053006D0061007200E4
:107FC20074002000370036003800380020004400DA
:107FD20075006F0000001C034D006500640069001D
:107FE2006100540065006B0020004C0061006200DB
:047FF2007300000018
:040000030000700089
:00000001FF
